S00B00006932632E737265631B
S11300000C9434000C9449000C9449000C9449005D
S11300100C9449000C9449000C9449000C94490038
S11300200C9449000C9449000C9449000C94490028
S11300300C9449000C9449000C9449000C94490018
S11300400C9449000C9449000C9449000C94490008
S11300500C9449000C9449000C9449000C944900F8
S11300600C9449000C94490011241FBECFEFD8E032
S1130070DEBFCDBF11E0A0E0B1E0E0EBF3E002C0F1
S113008005900D92A830B107D9F70E94C1010C94D4
S1130090D6010C94000087E48093B8001092B90054
S11300A084E08093BC0008958093BB0084E880932F
S11300B0BC00ECEBF0E080818823ECF7089584EA3F
S11300C08093BC00ECEBF0E080818823ECF708958A
S11300D0EBEBF0E09081282F207F9F70922B908390
S11300E094E89093BC00ECEBF0E090819923ECF75A
S11300F0EBEBF0E090819E7F908394E89093BC00BA
S1130100ECEBF0E090819923ECF7EBEBF0E09081DD
S11301109260908394E89093BC00ECEBF0E09081C3
S11301209923ECF732E03A95F1F700C0EBEBF0E0FD
S113013090819D7F908394E89093BC00ECEBF0E079
S113014090819923ECF795E39A95F1F70000EBEB96
S1130150F0E0208130E1839FC0011124922F9F7031
S1130160892B808384E88093BC00ECEBF0E08081F1
S11301708823ECF7EBEBF0E080818260808384E8F5
S11301808093BC00ECEBF0E080818823ECF782E004
S11301908A95F1F700C0EBEBF0E080818D7F8083DE
S11301A084E88093BC00ECEBF0E080818823ECF7DA
S11301B00895EBEBF0E09081282F207F9F70922B25
S11301C0908394E89093BC00ECEBF0E09081992349
S11301D0ECF7EBEBF0E090819160908394E89093DE
S11301E0BC00ECEBF0E090819923ECF7EBEBF0E052
S11301F090819260908394E89093BC00ECEBF0E0E3
S113020090819923ECF732E03A95F1F700C0EBEBDB
S1130210F0E090819D7F908394E89093BC00ECEB98
S1130220F0E090819923ECF7EBEBF0E0208130E1F2
S1130230839FC0011124922F9F70892B808384E8AF
S11302408093BC00ECEBF0E080818823ECF7EBEBCF
S1130250F0E080818260808384E88093BC00ECEBD2
S1130260F0E080818823ECF782E08A95F1F700C002
S1130270EBEBF0E080818D7F808384E88093BC0089
S1130280ECEBF0E080818823ECF70895EBEBF0E0F1
S113029080818D7F80838FE99FE00197F1F700C013
S11302A0000083E30E94680087EC90E00197F1F777
S11302B000C0000082E30E94680087EC90E0019790
S11302C0F1F700C0000088E20E94680087EC90E02B
S11302D00197F1F700C000008CE00E94680087ECF1
S11302E090E00197F1F700C0000081E00E946800EF
S11302F087EC90E00197F1F700C0000086E00E94CF
S1130300680087EC90E00197F1F700C000000895C1
S1130310CF93DF9300D000D0CDB7DEB790E89983B8
S113032090EC9A8394E99B8394ED9C838150FE0125
S1130330E60FF11D9081890F0E9468008FE891E01B
S11303400197F1F700C000000F900F900F900F90ED
S1130350DF91CF9108950F931F93CF93FC01808178
S1130360882359F08F01C0E00E94D900CF5FF801C3
S1130370EC0FF11D80818111F7CFCF911F910F9167
S113038008950E944B000E945F008EE40E94540076
S11303900E94460161E081E00E94880180E091E0D2
S11303A00E94AB0184E98093BC00FFCFF894FFCF97
S10B03B0616263646566670085
S9030000FC
