:100000000C9434000C9449000C9449000C94490061
:100010000C9449000C9449000C9449000C9449003C
:100020000C9449000C9449000C9449000C9449002C
:100030000C9449000C9449000C9449000C9449001C
:100040000C9449000C9449000C9449000C9449000C
:100050000C9449000C9449000C9449000C944900FC
:100060000C9449000C94490011241FBECFEFD8E036
:10007000DEBFCDBF11E0A0E0B1E0E6EDF2E002C0EE
:1000800005900D92AE30B107D9F70E9439010C945A
:1000900069010C940000EF92FF920F931F93CF938E
:1000A000DF93DC01AC01485F5F4FFC01C1E0D0E0B1
:1000B0008BB19E01019002C0220F331F0A94E2F718
:1000C000282B2BB92FE785EB91E021508040904001
:1000D000E1F700C00000E417F50751F7FB017B01D1
:1000E000C6E0EC0EF11C01E010E025B1EB01C80107
:1000F000099002C0880F991F0A94E2F7BE01822B73
:1001000085B9DFE725EB81E0D15020408040E1F761
:1001100000C000006E157F0541F761E070E09BB103
:100120009B010D9002C0220F331F0A94E2F7822F29
:10013000809589238BB99FE7C5EBD1E09150C040F2
:10014000D040E1F700C000004A175B0741F741E0EB
:1001500050E095B19A01019002C0220F331F0A941A
:10016000E2F7822F8095892385B92FE785EB91E00F
:10017000215080409040E1F700C00000EE15FF05DF
:1001800041F7DF91CF911F910F91FF90EF9008956C
:10019000EF92FF920F931F93CF93DF937C01DC01CB
:1001A0008C01085F1F4FFC0161E070E0EF014BB173
:1001B0009B01019002C0220F331F0A94E2F7242B07
:1001C0002BB92FEF89EF90E0215080409040E1F76C
:1001D00000C000002BB1AB01088002C0440F551FC6
:1001E0000A94E2F7942F909592239BB92FEF89EF11
:1001F00090E0215080409040E1F700C00000E017FF
:10020000F107A1F6E701269661E070E0FD0195B1E6
:100210009B010D9002C0220F331F0A94E2F7292B95
:1002200025B92FEF89EF90E0215080409040E1F711
:1002300000C0000025B1AB01008002C0440F551F73
:100240000A94E2F7942F9095922395B92FEF89EFB6
:1002500090E0215080409040E1F700C00000AC17D2
:10026000BD07A1F6DF91CF911F910F91FF90EF9005
:100270000895CF93DF93CDB7DEB72E970FB6F894DE
:10028000DEBF0FBECDBF8AB18FEF8AB994B184B9FA
:1002900088E0E0E0F1E0DE01119601900D928A9590
:1002A000E1F786E0E8E0F1E0DE01199601900D92B9
:1002B0008A95E1F7BE01675F7F4FCE0101960E94EC
:1002C0004B00BE01675F7F4FCE0101960E94C800C0
:0602D000F1CFF894FFCF0E
:0E02D6000001020304050607000102030405EF
:00000001FF
