S0140000627574746F6E5F7063696E742E73726563F7
S11300000C9434000C943E000C943E000C943E007E
S11300100C944F000C943E000C943E000C943E0053
S11300200C943E000C943E000C943E000C943E0054
S11300300C943E000C943E000C943E000C943E0044
S11300400C943E000C943E000C943E000C943E0034
S11300500C943E000C943E000C943E000C943E0024
S11300600C943E000C943E0011241FBECFEFD8E048
S1130070DEBFCDBF0E946D000C9476000C9400008E
S113008087B1807F87B9E8E6F0E080818260808371
S1130090ECE6F0E080818F608083789408951F926D
S11300A00F920FB60F921124309902C0589A01C0D2
S11300B05898319902C0599A01C05998329902C08E
S11300C05A9A01C05A98339902C05B9A01C05B984E
S11300D00F900FBE0F901F9018958FEF8AB91BB821
S11300E090EF97B988B90E944000FFCFF894FFCFF2
S9030000FC
