S01300006C6567377365676D656E742E73726563AF
S11300000C9434000C943E000C943E000C943E007E
S11300100C943E000C943E000C943E000C943E0064
S11300200C943E000C943E000C943E000C943E0054
S11300300C943E000C943E000C943E000C943E0044
S11300400C943E000C943E000C943E000C943E0034
S11300500C943E000C943E000C943E000C943E0024
S11300600C943E000C943E0011241FBECFEFD8E048
S1130070DEBFCDBF0E9450000C946B000C940000B6
S11300808CE284B980E58CBD08952A988EBD0DB4A8
S113009007FEFDCF6EBD0DB407FEFDCF2A9A08956D
S11300A00E9440006FEF89E00E94450061E08BE010
S11300B00E94450061E08CE00E94450069E08AE00E
S11300C00E94450065E081E00E94450066E082E010
S10D00D00E944500FFCFF894FFCF13
S9030000FC
