S01700006D61737465725F6D6F64655F6932632E7372656320
S11300000C9434000C943E000C943E000C943E007E
S11300100C943E000C943E000C943E000C943E0064
S11300200C943E000C943E000C943E000C943E0054
S11300300C943E000C943E000C943E000C943E0044
S11300400C943E000C943E000C943E000C943E0034
S11300500C943E000C943E000C943E000C943E0024
S11300600C943E000C943E0011241FBECFEFD8E048
S1130070DEBFCDBF0E9466000C9493000C94000078
S113008084EA8093BC00ECEBF0E080818823ECF7F9
S1130090089584E98093BC00ECEBF0E08081882330
S11300A0ECF708958093BB0084E88093BC00ECEBEC
S11300B0F0E080818823ECF708951092B90087E47A
S11300C08093B80084E08093BC0008958FEF84B9D6
S11300D00E945D000E9440008091B900887F8830B2
S11300E021F09FEF94B985B91BC082E00E945200B1
S11300F08091B900887F883121F09FEF94B985B948
S11301000FC088EF0E9452008091B900887F883226
S113011021F09FEF94B985B903C00E944900FFCF35
S10D012080E090E00895F894FFCF0A
S9030000FC
