S01000006A6F79737469636B2E73726563A4
S11300000C9434000C9451000C9451000C94510045
S11300100C94D0000C94F6000C9451000C945100F4
S11300200C9451000C9451000C9451000C94510008
S11300300C9451000C9451000C9451000C945100F8
S11300400C9451000C9451000C9451000C945100E8
S11300500C9451000C9453000C9451000C945100D6
S11300600C9451000C94510011241FBECFEFD8E022
S1130070DEBFCDBF11E0A0E0B1E0EEEEF2E002C0E1
S113008005900D92A230B107D9F721E0A2E0B1E0CA
S113009001C01D92A730B207E1F70E9407010C943A
S11300A075010C9400001F920F920FB60F92112449
S11300B0CF92DF92EF92FF922F933F934F935F93F0
S11300C06F937F938F939F93AF93BF93EF93FF931C
S11300D080E480937C008FE99FE00197F1F700C0F2
S11300E00000A0917800B0917900C0900501D12C56
S11300F0E12CF12C20910001422F50E060E070E0EF
S11301009A01AB012C193D094E095F090E943C017B
S11301102FEF33E040E050E00E941201C20ED31EE4
S1130120E41EF51EC09206018091060187BDEAE730
S1130130F0E0808180648083FF91EF91BF91AF9163
S11301409F918F917F916F915F914F913F912F91EB
S1130150FF90EF90DF90CF900F900FBE0F901F9005
S11301601895569A81E884BD81E085BD88EF87BDE6
S1130170089587B1807F87B98FE088B954985C9AD5
S1130180E8E6F0E0808186608083ECE6F0E0808140
S11301908F608083EDE6F0E0808180618083089544
S11301A01F920F920FB60F9211248F939F93309941
S11301B007C081E0809304018093030180930201CE
S11301C0319908C082E08093040191E09093030187
S11301D080930201329903C083E0809304019F91CC
S11301E08F910F900FBE0F901F9018951F920F9232
S11301F00FB60F9211248F934C9903C085E080931E
S113020004018F910F900FBE0F901F9018950E94BC
S1130210B9000E94B10078948FEF8AB980910401EB
S11302208BB9FCCF052E97FB1EF400940E94290184
S113023057FD07D00E94440107FC03D04EF40C94F0
S1130240290150954095309521953F4F4F4F5F4F71
S1130250089590958095709561957F4F8F4F9F4F2E
S113026008950E946601A59F900DB49F900DA49FD0
S1130270800D911D11240895B7FF0C9431010E9443
S11302803101821B930B0895A1E21A2EAA1BBB1BFA
S1130290FD010DC0AA1FBB1FEE1FFF1FA217B3074E
S11302A0E407F50720F0A21BB30BE40BF50B661F64
S11302B0771F881F991F1A9469F760957095809528
S11302C090959B01AC01BD01CF010895A29FB0019F
S11302D0B39FC001A39F700D811D1124911DB29F76
S11102E0700D811D1124911D0895F894FFCF17
S10502EEFF000B
S9030000FC
