S01700004763634170706C69636174696F6E312E737265635B
S11300000C9434000C944B000C943E000C943E0071
S11300100C943E000C943E000C943E000C943E0064
S11300200C943E000C943E000C943E000C943E0054
S11300300C943E000C943E000C943E000C943E0044
S11300400C943E000C943E000C943E000C943E0034
S11300500C943E000C943E000C943E000C943E0024
S11300600C943E000C943E0011241FBECFEFD8E048
S1130070DEBFCDBF0E9440000C945D000C940000D4
S113008088E087B987EF88B982E08093690081E0CE
S11300908DBB7894FFCF1F920F920FB60F9211244D
S11300A08F939F9398B188E0892788B99F918F9106
S11100B00F900FBE0F901F901895F894FFCF7D
S9030000FC
