S00D000061746D656C2E7372656304
S11300000C9434000C943E000C943E000C943E007E
S11300100C943E000C943E000C943E000C943E0064
S11300200C943E000C943E000C943E000C943E0054
S11300300C943E000C943E000C943E000C943E0044
S11300400C943E000C943E000C943E000C943E0034
S11300500C943E000C943E000C943E000C943E0024
S11300600C943E000C943E0011241FBECFEFD8E048
S1130070DEBFCDBF0E944A000C9454000C940000D3
S113008084E786BD82E085BDA89BFECF15BC81E0D8
S113009085BB08958FEF84B92C9AC0E10E9440007B
S10F00A085B18C2785B9FACFF894FFCF06
S9030000FC
