:100000000C9434000C94AD000C9451000C945100ED
:100010000C9451000C9451000C9451000C9451001C
:100020000C9451000C9451000C9451000C9451000C
:100030000C9451000C9460000C9451000C945100ED
:100040000C9451000C9451000C9451000C945100EC
:100050000C94F5000C9451000C9451000C94510038
:100060000C9451000C94510011241FBECFEFD8E026
:10007000DEBFCDBF11E0A0E0B1E0EEEBF8E002C0E2
:1000800005900D92A430B107D9F721E0A4E0B1E0CA
:1000900001C01D92A830B207E1F70E9404010C9440
:1000A0005D040C940000E1E8F0E0808181608083D1
:1000B00010928000EFE6F0E08081816080830895F7
:1000C0001F920F920FB60F9211248F939F93AF93AD
:1000D000BF938091040190910501A0910601B09118
:1000E00007010196A11DB11D8093040190930501A4
:1000F000A0930601B0930701BF91AF919F918F919B
:100100000F900FBE0F901F90189580910401909151
:100110000501A0910601B091070120918400309162
:100120008500DC0199278827BC01CD01620F731F70
:10013000811D911D089594B5936094BD95B593600C
:1001400095BD94B5906894BD87BD0895E9E6F0E04B
:10015000808182608083E89A08951F920F920FB683
:100160000F9211248F939F93AF93BF9380910401BB
:1001700090910501A0910601B09107010196A11D82
:10018000B11D8093040190930501A0930601B093E3
:100190000701BF91AF919F918F910F900FBE0F906C
:1001A0001F9018951092C50083E38093C40088E1E6
:1001B0008093C10086E08093C2000895E0ECF0E0F7
:1001C000908195FFFDCF8093C6000895CF93DF9374
:1001D000EC018881882331F021960E94DE0089910C
:1001E0008111FBCFDF91CF9108951F920F920FB62F
:1001F0000F9211248F938091C60085B98F910F9033
:100200000FBE0F901F901895CF93DF93CDB7DEB739
:10021000C85CD1090FB6F894DEBF0FBECDBF8FEF1B
:100220000E949B000E9453000E94A6000E94D200E0
:10023000109204011092050110920601109207011C
:100240001092850010928400789424E630E058EEF5
:1002500043E005C00197F1F72150310919F0852FCE
:10026000942FF8CF0E9485006B017C01F894FF92D7
:10027000EF92DF926F9380E091E09F938F938E01D6
:100280000B591F4F1F930F930E948501C8010E94B5
:10029000E6002FEF8EE994E2215080409040E1F794
:1002A00000C000000FB6F894DEBF0FBECDBF24E63D
:1002B00030E058EE43E005C00197F1F721503109D5
:1002C00019F0852F942FF8CF0E948500DC01CB0117
:1002D0008C199D09AE09BF09BF93AF939F938F936C
:1002E00080E091E09F938F938E010F5F1F4F1F93CC
:1002F0000F930E948501C8010E94E600F8940FB692
:10030000F894DEBF0FBECDBFFFCFAEE0B0E0EBE8AC
:10031000F1E00C9434040D891E8986E08C831A83E5
:1003200009838FEF9FE79E838D83AE01475E5F4F0A
:100330006F89788DCE0101960E94A8012F813885A2
:10034000F801E20FF31F10822E96E4E00C945004A3
:10035000ACE0B0E0EEEAF1E00C9426047C016B0125
:100360008A01FC0117821682838181FFBDC1CE0103
:1003700001964C01F7019381F60193FD859193FF5E
:1003800081916F01882309F4ABC1853239F493FD63
:10039000859193FF81916F01853229F4B70190E037
:1003A0000E949003E7CF512C312C20E02032A0F4A2
:1003B0008B3269F030F4803259F0833269F4206175
:1003C0002CC08D3239F0803339F4216026C0226090
:1003D000246023C0286021C027FD27C030ED380FDE
:1003E0003A3078F426FF06C0FAE05F9E300D112403
:1003F000532E13C08AE0389E300D1124332E206214
:100400000CC08E3221F426FD6BC1206406C08C36F0
:1004100011F4206802C0883641F4F60193FD8591FD
:1004200093FF81916F018111C1CF982F9F7D9554CA
:10043000933028F40C5F1F4FFFE3F9830DC0833620
:1004400031F0833771F0833509F05BC022C0F801C9
:10045000808189830E5F1F4F44244394512C5401A3
:1004600015C03801F2E06F0E711CF801A080B18058
:1004700026FF03C0652D70E002C06FEF7FEFC5015E
:100480002C870E9485032C0183012C852F77222E37
:1004900017C03801F2E06F0E711CF801A080B18026
:1004A00026FF03C0652D70E002C06FEF7FEFC5012E
:1004B0002C870E947A032C012C852068222E830130
:1004C00023FC1BC0832D90E048165906B0F4B701F9
:1004D00080E290E00E9490033A94F4CFF50127FC6B
:1004E000859127FE81915F01B70190E00E94900302
:1004F00031103A94F1E04F1A51084114510471F748
:10050000E5C0843611F0893639F5F80127FF07C0B8
:1005100060817181828193810C5F1F4F08C060816F
:100520007181072E000C880B990B0E5F1F4F2F76E1
:10053000722E97FF09C090958095709561957F4FB9
:100540008F4F9F4F2068722E2AE030E0A4010E9456
:10055000C803A82EA81844C0853729F42F7EB22ED0
:100560002AE030E025C0F22FF97FBF2E8F36C1F090
:1005700018F4883579F0B4C0803719F0883721F045
:10058000AFC02F2F2061B22EB4FE0DC08B2D846022
:10059000B82E09C024FF0AC09F2F9660B92E06C04E
:1005A00028E030E005C020E130E002C020E132E088
:1005B000F801B7FE07C060817181828193810C5F71
:1005C0001F4F06C06081718180E090E00E5F1F4F79
:1005D000A4010E94C803A82EA818FB2DFF777F2E28
:1005E00076FE0BC0372D3E7FA51450F474FE0AC072
:1005F00072FC08C0372D3E7E05C0BA2C372D03C0D3
:10060000BA2C01C0B52C34FF0DC0FE01EA0DF11D5E
:100610008081803311F4397E09C032FF06C0B39463
:10062000B39404C0832F867809F0B39433FD13C0CC
:1006300030FF06C05A2CB31418F4530C5B18B32CBB
:10064000B31468F4B70180E290E03C870E94900305
:10065000B3943C85F5CFB31410F43B1801C0312C92
:1006600034FF12C0B70180E390E03C870E94900302
:100670003C8532FF17C031FD03C088E790E002C01F
:1006800088E590E0B7010CC0832F867859F031FFE0
:1006900002C08BE201C080E237FD8DE2B70190E03D
:1006A0000E949003A51438F4B70180E390E00E9403
:1006B00090035A94F7CFAA94F401EA0DF11D8081BA
:1006C000B70190E00E949003A110F5CF332009F408
:1006D00051CEB70180E290E00E9490033A94F6CFA9
:1006E000F7018681978102C08FEF9FEF2C96E2E1A0
:1006F0000C944204FC010590615070400110D8F741
:10070000809590958E0F9F1F0895FC016150704059
:1007100001900110D8F7809590958E0F9F1F089536
:100720000F931F93CF93DF93FB01238121FD03C020
:100730008FEF9FEF28C022FF16C04681578124818A
:1007400035814217530744F4A081B1819D012F5F89
:100750003F4F318320838C93268137812F5F3F4F1A
:100760003783268310C0EB01092F182F0084F185F1
:10077000E02D0995892BE1F68E819F8101969F835B
:100780008E83812F902FDF91CF911F910F9108952C
:10079000FA01AA27283051F1203181F1E8946F93B2
:1007A0006E7F6E5F7F4F8F4F9F4FAF4FB1E03ED058
:1007B000B4E03CD0670F781F891F9A1FA11D680FF6
:1007C000791F8A1F911DA11D6A0F711D811D911D29
:1007D000A11D20D009F468943F912AE0269F11249E
:1007E0003019305D3193DEF6CF010895462F477002
:1007F000405D4193B3E00FD0C9F7F6CF462F4F705D
:10080000405D4A3318F0495D31FD4052419302D0BA
:10081000A9F7EACFB4E0A695979587957795679560
:10082000BA95C9F700976105710508959B01AC0160
:100830000A2E06945795479537952795BA95C9F787
:10084000620F731F841F951FA01D08952F923F9262
:100850004F925F926F927F928F929F92AF92BF92D0
:10086000CF92DF92EF92FF920F931F93CF93DF937C
:10087000CDB7DEB7CA1BDB0B0FB6F894DEBF0FBED9
:10088000CDBF09942A88398848885F846E847D8426
:100890008C849B84AA84B984C884DF80EE80FD8028
:1008A0000C811B81AA81B981CE0FD11D0FB6F8949E
:0E08B000DEBF0FBECDBFED010895F894FFCF5F
:0408BE00256C750030
:00000001FF
