S00F000064636D6F746F722E737265631D
S11300000C9434000C943E000C943E000C943E007E
S11300100C943E000C943E000C943E000C943E0064
S11300200C943E000C943E000C943E000C943E0054
S11300300C943E000C943E000C943E000C943E0044
S11300400C943E000C943E000C943E000C943E0034
S11300500C943E000C943E000C943E000C943E0024
S11300600C943E000C943E0011241FBECFEFD8E048
S1130070DEBFCDBF0E9440000C944F000C940000E2
S11300808AB18C608AB98FEF87BD81E884BD81E035
S113009085BD84E687BD84E08BB95B98FFCFF89477
S10500A0FFCF8C
S9030000FC
