:100000000C9434000C9451000C9451000C94510049
:100010000C943B020C9451000C9451000C94510030
:100020000C9451000C9451000C9451000C94070254
:100030000C9451000C9451000C9451000C945100FC
:100040000C9451000C9451000C9451000C945100EC
:100050000C9451000C9451000C9451000C945100DC
:100060000C9451000C94510011241FBECFEFD8E026
:10007000DEBFCDBF11E0A0E0B1E0E4E3FDE002C0EF
:1000800005900D92A631B107D9F721E0A6E1B1E0C4
:1000900001C01D92A133B207E1F70E940C010C943C
:1000A00098060C9400009BB1282F207F9F70922B04
:1000B0009BB9589859985A9A35E33A95F1F7000048
:1000C0005A989AE69A95F1F700C02BB130E1839FD8
:1000D000C0011124922F9F70892B8BB95A9A85E306
:1000E0008A95F1F700005A9808959BB1282F207F38
:1000F0009F70922B9BB9589A59985A9A35E33A9522
:10010000F1F700005A982BB130E1839FC001112410
:10011000922F9F70892B8BB95A9A85E38A95F1F7B4
:1001200000005A9808958FEF8AB95A988FE39FE19B
:100130000197F1F700C0000083E30E9453008FE8AD
:1001400091E00197F1F700C0000082E30E945300A4
:100150008FE891E00197F1F700C0000088E20E946B
:1001600053008FE891E00197F1F700C000008CE0A8
:100170000E9453008FE891E00197F1F700C0000062
:1001800081E00E9453008FE891E00197F1F700C0F1
:10019000000086E00E9453008FE891E00197F1F79C
:1001A00000C000000895CF93DF9300D000D0CDB7FA
:1001B000DEB790E8998390EC9A8394E99B8394ED61
:1001C0009C838150FE01E60FF11D9081890F0E94F2
:1001D00053008FE193E00197F1F700C000000F900A
:1001E0000F900F900F90DF91CF9108950F931F9371
:1001F000CF93FC018081882359F08F01C0E00E94D9
:100200007500CF5FF801EC0FF11D80818111F7CFF0
:10021000CF911F910F9108958FEF8AB917B888B9C0
:100220000E942C020E94930082E091E00E94F6005E
:1002300086B18F37E9F30E94E8010E9466020E94AE
:100240007F02F9CFCF92DF92EF92FF920F931F932D
:10025000CF93DF936B017C0120E030E040E85FE367
:100260000E949C02062F172FD82FC92F20E030E0C4
:10027000A901C701B6010E940903811105C023C06D
:100280000C2D1D2DDE2DCF2D8FE99FE00197F1F76D
:1002900000C0000020E030E040E85FE3602F712FF5
:1002A0008D2F9C2F0E949C02C62ED72EE82EF92E51
:1002B00020E030E0A901602F712F8D2F9C2F0E942C
:1002C00009038111DDCFDF91CF911F910F91FF9035
:1002D000EF90DF90CF90089583E085B960910001A1
:1002E0007091010180E090E00E940E030E942201C3
:1002F00085E085B9609100017091010180E090E096
:100300000E940E030E94220189E085B960910001DC
:100310007091010180E090E00E940E030E94220192
:1003200081E185B9609100017091010180E090E068
:100330000E940E030E942201089581E185B9609117
:1003400000017091010180E090E00E940E030E9484
:10035000220189E085B9609100017091010180E07E
:1003600090E00E940E030E94220185E085B9609111
:1003700000017091010180E090E00E940E030E9454
:10038000220183E085B9609100017091010180E054
:1003900090E00E940E030E942201089580910001C6
:1003A000909101018630910528F005979093010105
:1003B000809300010895809100019091010184369D
:1003C000910528F40596909301018093000108950A
:1003D000809101018F93809100018F9382E191E0E0
:1003E0009F938F938DE191E09F938F930E94C00321
:1003F00062E086E00E94D3008DE191E00E94F60069
:100400000F900F900F900F900F900F9008951F92E4
:100410000F920FB60F9211248F939F93AF93BF93B8
:100420008091190190911A01A0911B01B0911C01BA
:100430000196A11DB11D8093190190931A01A093FB
:100440001B01B0931C01BF91AF919F918F910F90B1
:100450000FBE0F901F90189587B1807F87B9E8E68F
:10046000F0E0808182608083ECE6F0E080818F6044
:100470008083789408951F920F920FB60F921124E3
:100480008F939F93309907C081E0809318018093E8
:10049000170180931601319908C082E080931801FA
:1004A00091E09093170180931601329903C083E085
:1004B00080931801339903C084E0809318019F91C1
:1004C0008F910F900FBE0F901F901895809118017B
:1004D000823061F018F4813031F00895833049F0B2
:1004E000843051F008950E946C0108950E949D018E
:1004F00008950E94CE0108950E94DB010895809125
:1005000018011F928F9382E191E09F938F9387E26E
:1005100091E09F938F930E94C00362E081E00E946C
:10052000D30087E291E00E94F6000F900F900F90A9
:100530000F900F900F9008955058BB27AA270E9444
:10054000B4020C9486030E94780338F00E947F0363
:1005500020F039F49F3F19F426F40C9475030EF43F
:10056000E095E7FB0C946F03E92F0E94970358F383
:10057000BA17620773078407950720F079F4A6F588
:100580000C94B9030EF4E0950B2EBA2FA02D0B019D
:10059000B90190010C01CA01A0011124FF27591BC8
:1005A00099F0593F50F4503E68F11A16F040A22FCE
:1005B000232F342F4427585FF3CF4695379527953F
:1005C000A795F0405395C9F77EF41F16BA0B620B3E
:1005D000730B840BBAF09150A1F0FF0FBB1F661F85
:1005E000771F881FC2F70EC0BA0F621F731F841FC8
:1005F00048F4879577956795B795F7959E3F08F0EE
:10060000B0CF9395880F08F09927EE0F97958795AF
:1006100008950E944B0308F481E00895E89409C00E
:1006200097FB3EF490958095709561957F4F8F4F25
:100630009F4F9923A9F0F92F96E9BB279395F6953B
:10064000879577956795B795F111F8CFFAF4BB0FB9
:1006500011F460FF1BC06F5F7F4F8F4F9F4F16C01D
:10066000882311F096E911C0772321F09EE8872FA7
:10067000762F05C0662371F096E8862F70E060E063
:100680002AF09A95660F771F881FDAF7880F9695DC
:10069000879597F90895990F0008550FAA0BE0E880
:1006A000FEEF16161706E807F907C0F01216130634
:1006B000E407F50798F0621B730B840B950B39F474
:1006C0000A2661F0232B242B252B21F408950A26DA
:1006D00009F4A140A6958FEF811D811D089597F91A
:1006E0009F6780E870E060E008959FEF80EC0895D8
:1006F00000240A9416161706180609060895002401
:100700000A9412161306140605060895092E03947A
:10071000000C11F4882352F0BB0F40F4BF2B11F4EE
:1007200060FF04C06F5F7F4F8F4F9F4F089557FD4D
:100730009058440F551F59F05F3F71F04795880F4F
:1007400097FB991F61F09F3F79F0879508951216E6
:1007500013061406551FF2CF4695F1DF08C0161692
:1007600017061806991FF1CF869571056105089443
:100770000895E894BB2766277727CB0197F908955A
:10078000AEE0B0E0E6ECF3E00C946F060D891E8954
:1007900086E08C831A8309838FEF9FE79E838D8386
:1007A000AE01475E5F4F6F89788DCE0101960E9442
:1007B000E3032F813885F801E20FF31F10822E9694
:1007C000E4E00C948B06ACE0B0E0E9EEF3E00C94CE
:1007D00061067C016B018A01FC011782168283810C
:1007E00081FFBDC1CE0101964C01F7019381F60155
:1007F00093FD859193FF81916F01882309F4ABC12B
:10080000853239F493FD859193FF81916F01853293
:1008100029F4B70190E00E94CB05E7CF512C312C91
:1008200020E02032A0F48B3269F030F4803259F0AD
:10083000833269F420612CC08D3239F0803339F471
:10084000216026C02260246023C0286021C027FDCB
:1008500027C030ED380F3A3078F426FF06C0FAE0B2
:100860005F9E300D1124532E13C08AE0389E300D48
:100870001124332E20620CC08E3221F426FD6BC170
:10088000206406C08C3611F4206802C0883641F41A
:10089000F60193FD859193FF81916F018111C1CF85
:1008A000982F9F7D9554933028F40C5F1F4FFFE3E2
:1008B000F9830DC0833631F0833771F0833509F049
:1008C0005BC022C0F801808189830E5F1F4F4424E2
:1008D0004394512C540115C03801F2E06F0E711C85
:1008E000F801A080B18026FF03C0652D70E002C032
:1008F0006FEF7FEFC5012C870E94C0052C0183019B
:100900002C852F77222E17C03801F2E06F0E711C54
:10091000F801A080B18026FF03C0652D70E002C001
:100920006FEF7FEFC5012C870E94B5052C012C8548
:100930002068222E830123FC1BC0832D90E04816E3
:100940005906B0F4B70180E290E00E94CB053A94DA
:10095000F4CFF50127FC859127FE81915F01B70156
:1009600090E00E94CB0531103A94F1E04F1A510803
:100970004114510471F7E5C0843611F0893639F518
:10098000F80127FF07C060817181828193810C5F2C
:100990001F4F08C060817181072E000C880B990BD6
:1009A0000E5F1F4F2F76722E97FF09C0909580958E
:1009B000709561957F4F8F4F9F4F2068722E2AE070
:1009C00030E0A4010E940306A82EA81844C0853771
:1009D00029F42F7EB22E2AE030E025C0F22FF97FD5
:1009E000BF2E8F36C1F018F4883579F0B4C0803747
:1009F00019F0883721F0AFC02F2F2061B22EB4FE3E
:100A00000DC08B2D8460B82E09C024FF0AC09F2F13
:100A10009660B92E06C028E030E005C020E130E045
:100A200002C020E132E0F801B7FE07C060817181A9
:100A3000828193810C5F1F4F06C06081718180E0CD
:100A400090E00E5F1F4FA4010E940306A82EA81875
:100A5000FB2DFF777F2E76FE0BC0372D3E7FA51432
:100A600050F474FE0AC072FC08C0372D3E7E05C0EB
:100A7000BA2C372D03C0BA2C01C0B52C34FF0DC0E1
:100A8000FE01EA0DF11D8081803311F4397E09C029
:100A900032FF06C0B394B39404C0832F867809F064
:100AA000B39433FD13C030FF06C05A2CB31418F4AE
:100AB000530C5B18B32CB31468F4B70180E290E0D8
:100AC0003C870E94CB05B3943C85F5CFB31410F45A
:100AD0003B1801C0312C34FF12C0B70180E390E015
:100AE0003C870E94CB053C8532FF17C031FD03C017
:100AF00088E790E002C088E590E0B7010CC0832F42
:100B0000867859F031FF02C08BE201C080E237FDE8
:100B10008DE2B70190E00E94CB05A51438F4B7012F
:100B200080E390E00E94CB055A94F7CFAA94F40199
:100B3000EA0DF11D8081B70190E00E94CB05A11064
:100B4000F5CF332009F451CEB70180E290E00E9446
:100B5000CB053A94F6CFF7018681978102C08FEFDB
:100B60009FEF2C96E2E10C947D06FC01059061500C
:100B700070400110D8F7809590958E0F9F1F0895B3
:100B8000FC016150704001900110D8F7809590955C
:100B90008E0F9F1F08950F931F93CF93DF93FB0139
:100BA000238121FD03C08FEF9FEF28C022FF16C0D5
:100BB00046815781248135814217530744F4A0812F
:100BC000B1819D012F5F3F4F318320838C9326811C
:100BD00037812F5F3F4F3783268310C0EB01092FEA
:100BE000182F0084F185E02D0995892BE1F68E817F
:100BF0009F8101969F838E83812F902FDF91CF91CC
:100C00001F910F910895FA01AA27283051F1203140
:100C100081F1E8946F936E7F6E5F7F4F8F4F9F4F90
:100C2000AF4FB1E03ED0B4E03CD0670F781F891FD2
:100C30009A1FA11D680F791F8A1F911DA11D6A0FA0
:100C4000711D811D911DA11D20D009F468943F9153
:100C50002AE0269F11243019305D3193DEF6CF0152
:100C60000895462F4770405D4193B3E00FD0C9F718
:100C7000F6CF462F4F70405D4A3318F0495D31FD85
:100C80004052419302D0A9F7EACFB4E0A6959795D8
:100C9000879577956795BA95C9F7009761057105AE
:100CA00008959B01AC010A2E0694579547953795F8
:100CB0002795BA95C9F7620F731F841F951FA01D52
:100CC00008952F923F924F925F926F927F928F92F0
:100CD0009F92AF92BF92CF92DF92EF92FF920F93CB
:100CE0001F93CF93DF93CDB7DEB7CA1BDB0B0FB6D5
:100CF000F894DEBF0FBECDBF09942A883988488892
:100D00005F846E847D848C849B84AA84B984C88427
:100D1000DF80EE80FD800C811B81AA81B981CE0F1E
:100D2000D11D0FB6F894DEBF0FBECDBFED01089503
:040D3000F894FFCF65
:100D3400320044756E6727732050726F6A6563745E
:060D4400210025326400CD
:00000001FF
