:100000000C9434000C9449000C9449000C94490061
:100010000C9449000C9449000C9449000C9449003C
:100020000C9449000C9449000C9449000C9449002C
:100030000C9449000C9449000C9449000C9449001C
:100040000C9449000C9449000C9449000C9449000C
:100050000C9449000C9449000C9449000C944900FC
:100060000C9449000C94490011241FBECFEFD8E036
:10007000DEBFCDBF11E0A0E0B1E0E4E2F5E002C0F8
:1000800005900D92A430B107D9F70E944B000C9453
:1000900090020C9400008FE08AB917B88FEF88B9EE
:1000A00086B18F3FE9F310E0C0E000E0D1E086B117
:1000B0008B3FC1F028F48F3E49F1873FC9F0F7CF5D
:1000C0008D3F49F08E3F99F70E9498010E94DE0013
:1000D0001D2FCD2FECCF0E9498010E940F01102FF1
:1000E000CD2FE5CF0E9498010E949601C02FDFCF4F
:1000F0000E9498010E944001CC23C9F2112319F0FB
:100100000E94DE00D4CF0E940F01D1CF0E9498013F
:100110000E946B01CC2359F2112319F00E94DE00DA
:10012000C6CF0E940F01C3CFCF92DF92EF92FF9212
:100130000F931F93CF93DF936B017C0120E030E09E
:1001400040E85FE30E94A401062F172FD82FC92F84
:1001500020E030E0A901C701B6010E94110281111F
:1001600005C023C00C2D1D2DDE2DCF2D8FE99FE066
:100170000197F1F700C0000020E030E040E85FE3C5
:10018000602F712F8D2F9C2F0E94A401C62ED72E79
:10019000E82EF92E20E030E0A901602F712F8D2F7D
:1001A0009C2F0E9411028111DDCFDF91CF911F9111
:1001B0000F91FF90EF90DF90CF90089581E08BB981
:1001C0006091000170910101809102019091030101
:1001D0000E94940082E08BB960910001709101014E
:1001E00080910201909103010E94940084E08BB9F8
:1001F00060910001709101018091020190910301D1
:100200000E94940088E08BB9609100017091010117
:1002100080910201909103010E949400089588E06A
:100220008BB9609100017091010180910201909160
:1002300003010E94940084E08BB9609100017091E9
:10024000010180910201909103010E94940082E0DB
:100250008BB9609100017091010180910201909130
:1002600003010E94940081E08BB9609100017091BC
:10027000010180910201909103010E949400089570
:10028000CF92DF92EF92FF92C0900001D0900101D7
:10029000E0900201F090030120E030E040E050E403
:1002A000C701B6010E948B02181684F420E030E0EA
:1002B00040E050E4C701B6010E94A4016093000130
:1002C000709301018093020190930301FF90EF90DE
:1002D000DF90CF900895CF92DF92EF92FF92C0907F
:1002E0000001D0900101E0900201F090030120E0B4
:1002F00030E048EC52E4C701B6010E9411028823A5
:1003000084F420E030E040E050E4C701B6010E94F0
:10031000A501609300017093010180930201909305
:100320000301FF90EF90DF90CF9008951BB80895E0
:10033000CF93C7E060E070E080E490E40E94940016
:10034000C150C1F7CF9108955058BB27AA270E94EA
:10035000BC010C9451020E94430238F00E944A02F0
:1003600020F039F49F3F19F426F40C9440020EF467
:10037000E095E7FB0C943A02E92F0E94620258F3E1
:10038000BA17620773078407950720F079F4A6F57A
:100390000C9484020EF4E0950B2EBA2FA02D0B01C5
:1003A000B90190010C01CA01A0011124FF27591BBA
:1003B00099F0593F50F4503E68F11A16F040A22FC0
:1003C000232F342F4427585FF3CF46953795279531
:1003D000A795F0405395C9F77EF41F16BA0B620B30
:1003E000730B840BBAF09150A1F0FF0FBB1F661F77
:1003F000771F881FC2F70EC0BA0F621F731F841FBA
:1004000048F4879577956795B795F7959E3F08F0DF
:10041000B0CF9395880F08F09927EE0F97958795A1
:1004200008950E94160208F481E00895990F0008CB
:10043000550FAA0BE0E8FEEF16161706E807F907B6
:10044000C0F012161306E407F50798F0621B730B51
:10045000840B950B39F40A2661F0232B242B252BD2
:1004600021F408950A2609F4A140A6958FEF811D75
:10047000811D089597F99F6780E870E060E0089516
:100480009FEF80EC089500240A94161617061806AC
:100490000906089500240A94121613061406050688
:1004A0000895092E0394000C11F4882352F0BB0F19
:1004B00040F4BF2B11F460FF04C06F5F7F4F8F4F7C
:1004C0009F4F089557FD9058440F551F59F05F3FB7
:1004D00071F04795880F97FB991F61F09F3F79F066
:1004E00087950895121613061406551FF2CF4695E8
:1004F000F1DF08C0161617061806991FF1CF86956A
:100500007105610508940895E894BB27662777274D
:10051000CB0197F908950E94160208F48FEF089511
:04052000F894FFCF7D
:040524000000484249
:00000001FF
