:100000000C9434000C943E000C943E000C943E0082
:100010000C943E000C943E000C943E000C943E0068
:100020000C943E000C943E000C943E000C943E0058
:100030000C943E000C943E000C943E000C943E0048
:100040000C943E000C943E000C943E000C943E0038
:100050000C943E000C943E000C943E000C943E0028
:100060000C943E000C943E0011241FBECFEFD8E04C
:10007000DEBFCDBF0E9460000C9481000C94000094
:1000800094E09093B9008093BA0084EC8093BC0014
:100090000895811104C084EC8093BC0003C084E8FF
:1000A0008093BC00ECEBF0E080818823ECF780913A
:1000B000BB000895ECEBF0E080818823ECF7089515
:1000C0008FEF84B982E00E9440000E945A00809124
:1000D000B900887F803621F09FEF94B985B90EC0B2
:1000E00080E00E9449009091B900987F903821F0FB
:1000F0008FEF84B995B902C085B9FFCF80E090E059
:060100000895F894FFCF02
:00000001FF
